:10000000E01F0010E90000005F010000350400005F
:10001000000000000000000000000000A3D9FFEF76
:10002000000000000000000000000000630100006C
:1000300000000000000000006501000067010000F2
:100040006B010000730100007B01000083010000D0
:100050008B010000930100009B010000A301000040
:10006000AB010000B3010000BB010000C3010000B0
:10007000CB010000D3010000DB010000E301000020
:10008000EB010000F3010000FB010000030200008F
:100090000B020000130200001B02000023020000FC
:1000A0002B020000330200003B020000430200006C
:1000B0004B020000530200005B02000063020000DC
:1000C00008320000000000100400000008320000A8
:1000D000E01F0010000000000400001004010000F8
:1000E000E01F00100000000072B6134838210160C4
:1000F00001F05AFB0D4B07E0186859681C000C34DE
:100100009A6800F01BF82300094A9342F4D306E0F2
:1001100018681C000834596800F019F82300054AD3
:100120009342F5D362B602F0B0FBFEE7C0000000D8
:10013000D8000000E80000002002004010B50023B5
:1001400002E010C810C104339342FAD310BD00235B
:1001500002E0002204C004338B42FAD37047FEE76A
:10016000FEE7FEE7FEE7FEE7FEE710B501F002F866
:1001700010BD10B501F018F810BD10B5FFF7F4FF71
:1001800010BD10B501F0DAFA10BD10B501F0E8FAB3
:1001900010BD10B501F0F6FA10BD10B5FFF7E4FF81
:1001A00010BD10B5FFF7E0FF10BD10B5FFF7DCFF85
:1001B00010BD10B5FFF7D8FF10BD10B5FFF7D4FF85
:1001C00010BD10B5FFF7D0FF10BD10B5FFF7CCFF85
:1001D00010BD10B5FFF7C8FF10BD10B5FFF7C4FF85
:1001E00010BD10B5FFF7C0FF10BD10B5FFF7BCFF85
:1001F00010BD10B5FFF7B8FF10BD10B5FFF7B4FF85
:1002000010BD10B5FFF7B0FF10BD10B5FFF7ACFF84
:1002100010BD10B5FFF7A8FF10BD10B5FFF7A4FF84
:1002200010BD10B5FFF7A0FF10BD10B5FFF79CFF84
:1002300010BD10B5FFF798FF10BD10B5FFF794FF84
:1002400010BD10B5FFF790FF10BD10B5FFF78CFF84
:1002500010BD10B5FFF788FF10BD10B5FFF784FF84
:1002600010BD10B5FFF780FF10BDFFFFFFFFFFFFC0
:10027000FFFFFFFFFFFFFFFFFFFFFFFFFFFFFFFF8E
:10028000FFFFFFFFFFFFFFFFFFFFFFFFFFFFFFFF7E
:10029000FFFFFFFFFFFFFFFFFFFFFFFFFFFFFFFF6E
:1002A000FFFFFFFFFFFFFFFFFFFFFFFFFFFFFFFF5E
:1002B000FFFFFFFFFFFFFFFFFFFFFFFFFFFFFFFF4E
:1002C000FFFFFFFFFFFFFFFFFFFFFFFFFFFFFFFF3E
:1002D000FFFFFFFFFFFFFFFFFFFFFFFFFFFFFFFF2E
:1002E000FFFFFFFFFFFFFFFFFFFFFFFFFFFFFFFF1E
:1002F000FFFFFFFFFFFFFFFFFFFFFFFFFFFFFFFF0E
:1003000080B582B000AF78607A68034B11001800A6
:1003100001F038FF00BEFDE7DC29000080B58AB09F
:1003200000AFB96011007B600F23FB18021C1A702C
:100330000E203B180A1C1A703B181B78012B01D0A9
:10034000012335E01C4B0E22BA1812781A741421BE
:100350007B187A681A607B18BA685A607B1800228A
:100360001A727B1800225A727B1801229A727B182B
:100370000122DA727B1800221A737B1800225A734A
:100380007B180F22BA1812789A737B180022DA733E
:100390007B1800221A747A18074B1100180001F01C
:1003A00029FA054B054A9A60034B054ADA60002397
:1003B0001800BD460AB080BD040000108919000075
:1003C0001119000080B584B000AF78603960002357
:1003D000FB600A4B1B7C002B02D101235B4208E02F
:1003E0003A687968064B180001F06AFF0300FB6069
:1003F000FB681800BD4604B080BDC0460400001074
:100400000504000080B582B000AF7860084B1B7C0B
:10041000002B02D101235B4206E0054B9B68391D8E
:1004200003480122984701231800BD4602B080BD51
:100430000400001004207146084202D0EFF3098046
:1004400001E0EFF3088081690A88074B9A4200D0E7
:10045000FEE7023181610168012901D0002100E03D
:10046000202101607047C046ABBE000080B582B05D
:1004700000AF0200FB1D1A70074A8023D258FB1DF3
:100480001B78012199400B000349134380228B50B4
:10049000C046BD4602B080BD0080044080B582B039
:1004A00000AF02003960BB1D1A80BB1D1B881B05F5
:1004B0001B0D054A944663443A68FF210A401A60BE
:1004C000C046BD4602B080BD0080044080B582B009
:1004D00000AF0E20FFF7CAFF01219420FFF7DEFFD7
:1004E0000B20FFF7C3FF02F0C9F902F0C0F901F0D9
:1004F000B1FA00F021F800237B6002E07B68013351
:100500007B607B680A4A9342F8DD00F05BF80023C9
:100510003B6002E03B6801333B603B68054A934225
:10052000F8DD0F2000F07CF800F0C4F8FEE7C046CC
:100530003F420F000F27000080B588B000AF3B1D81
:10054000180018231A00002102F0A9F90023FB610A
:100550003B1D180000F0E8FB3B1D164A5A603B1D8E
:10056000154ADA603B1D01221A723B1D00225A72A5
:100570003B1D00229A723B1D0722DA723B1D0F4A77
:100580001A823B1D00221A703B1D1022DA743B1D9B
:1005900009229A74012000F065F90300FB61FA69F1
:1005A0003B1D0748190000F003FCC046BD4608B0DB
:1005B00080BDC04620A10700FFFFFEFFFFF0FFFF48
:1005C0000080054080B584B000AF124B01221A7044
:1005D000104B00225A703B00180010231A00002113
:1005E00002F05DF93B000B4A1A603B000A4A5A6070
:1005F0003B0004229A603B00C0229203DA603B0079
:10060000064A1900100000F09FFCC046BD4604B029
:1006100080BDC046180000101C000010008005407E
:1006200080B588B000AF0200FB1D1A700023BB61CB
:100630000823FB18180010231A00002102F02FF9DC
:100640000023FB610CE0184AFB69D31800221A70E2
:10065000164AFB69D31800221A70FB690133FB614B
:10066000FB69032BEFDDFB1D1B78802252421343F5
:10067000DAB20E4B1A7008217B180C4A1A607B18EC
:10068000094A5A607B1804229A607B18C0229203A0
:10069000DA607B18064A1900100000F055FCC046CD
:1006A000BD4608B080BDC0461C00001018000010F8
:1006B0000080054080B582B000AF00237B600E4B08
:1006C000180001F05FFD00237B600CE00B4A7B68A3
:1006D000D3181B781A000A4B1100180001F052FDC4
:1006E0007B6801337B607B68032BEFD9C046C04633
:1006F000BD4602B080BDC046F02900001C000010BD
:10070000042A000080B500AF00F078F8054B9B6F1D
:10071000FF221340190002F0E8F803001800BD465C
:1007200080BDC0460080044080B500AF00F0D2F824
:100730000200044B9B681F210B40013353431800F8
:10074000BD4680BD0080044080B500AF024B1B68F1
:100750001800BD4680BDC0462400001080B500AF23
:10076000024B1B681800BD4680BDC046200000102B
:1007700080B582B000AF786039607B68002B03D110
:100780000D4B1800FFF7BCFD7B681B683A68D2432D
:100790001A407B681A607B681A683B681A437B685A
:1007A0001A60C0467B681B683A681340FAD0C0469E
:1007B000C046BD4602B080BD0C2A000080B500AF27
:1007C000014B1800BD4680BD001BB70080B582B04C
:1007D00000AF00237B60084A8E239B00D358202261
:1007E000134003D1FFF7BAFF03007B607B6818005A
:1007F000BD4602B080BDC0460080044080B582B0D6
:1008000000AF00237B60154B1B6F032B17D01BD849
:10081000022B0FD018D8002B02D0012B05D013E0EB
:10082000FFF7CCFF03007B6012E000F053F80300F9
:100830007B600DE0FFF788FF03007B6008E0FFF7B7
:1008400073FF03007B6003E0054B1800FFF758FDC2
:100850007B681800BD4602B080BDC04600800440E1
:10086000242A000080B584B000AF0200FB1D1A707E
:10087000FB1D1B78072B22D89A00154BD3181B6839
:100880009F46FFF73FFF0300FB601BE0FFF7B6FF4B
:100890000300FB6016E0FFF791FF0300FB6011E02F
:1008A000FFF75CFF0300FB600CE0FFF74DFF030068
:1008B000FB6007E0FFF738FF0300FB6002E0002366
:1008C000FB60C046FB681800BD4604B080BDC04652
:1008D0003C2A000080B582B000AF00237B60124B41
:1008E0001B6C03221340032B0FD013D8002B02D014
:1008F000012B05D00EE0FFF761FF03007B600DE0E8
:10090000FFF764FF03007B6008E0FFF727FF0300A9
:100910007B6003E0054B1800FFF7F2FC7B681800D2
:10092000BD4602B080BDC046008004405C2A000085
:1009300080B584B000AF78600023FB607B680D4A0F
:10094000934202D90023FB600FE07B680A4A93427E
:1009500002D90123FB6008E07B68084A934202D970
:100960000223FB6001E00323FB60FB681800BD4627
:1009700004B080BD802FA604C0175302E08B29016C
:1009800080B586B000AF78607B681B68374A9342B9
:1009900003D9374B1800FFF7B3FC00237B6100231A
:1009A0003B610023FB60334A8E239B00D3583149BF
:1009B00080221A438E239B00CA502E4B1B6C0322AD
:1009C00093437A6812791343BB602A4B196C294B05
:1009D000BA680A431A64284B03211800FFF7C8FEBF
:1009E000FFF778FF0300FB60FB68002B03D1234B6C
:1009F0001800FFF785FC7B681B68F968180001F098
:100A000074FF03007B617B681B681800FFF790FF91
:100A100003003B61174B9B687F2293431A007B695D
:100A2000013B1F210B401A4311003B695B0160220F
:100A30001A40104B0A439A600E4A8E239B00D358EB
:100A40000C49802293431A008E239B00CA50C04653
:100A5000084BDB6801221340FAD0FB687A695A43DD
:100A6000074B1A60C046BD4606B080BD00E1F505E3
:100A7000742A00000080044044800440B82A00002A
:100A80002800001080B584B000AF0200BB1D1A80A2
:100A9000BB1D1B88FF221340FB60BB1D1B881B0A6C
:100AA0009BB21A00FF231340BB600F4B1B6F032246
:100AB0001340BA689A4212D0FB68002B0FD10A4B40
:100AC0001B6F032293431900BB6803221A40064B95
:100AD0000A431A67054B01211800FFF749FEC0467B
:100AE000BD4604B080BDC046008004407480044010
:100AF00080B582B000AF0200FB1D1A70074A802348
:100B0000D258FB1D1B78012199400B000349134368
:100B100080228B50C046BD4602B080BD008004409C
:100B200080B582B000AF786039603B68002B03D09D
:100B3000054B1800FFF7E4FB06231800FFF7D8FF6A
:100B4000C046BD4602B080BDDC2A000080B584B03E
:100B500000AF0200FB1D1A70FB1D1B78FB60012219
:100B6000FB689A401300BB60FB681F2B03D9074B3F
:100B70001800FFF7C5FB064B5A68BB68D943044B06
:100B80000A405A60C046BD4604B080BD102B00002C
:100B90000080044080B584B000AF0200FB1D1A70D5
:100BA000FB1D1B78FB600122FB689A401300BB60B1
:100BB000FB681F2B03D9074B1800FFF7A1FB064B5F
:100BC0005968054BBA680A435A60C046BD4604B02E
:100BD00080BDC046302B00000080044080B582B04C
:100BE00000AF0200FB1D1A70074A8023D258FB1D7C
:100BF0001B78012199400B000349134380228B503D
:100C0000C046BD4602B080BD0080044080B582B0C1
:100C100000AF786039607B681B6A064A1A40396801
:100C2000E023DB030B401A437B681A62C046BD46D3
:100C300002B080BDFFFF8FFF80B584B000AF786049
:100C40007B68002B03D1124B1800FFF759FB0023E0
:100C5000FB600023FB6009E00E4BFA689200D2585B
:100C60007B689A4206D0FB680133FB60FB68012B6E
:100C7000F2D900E0C046FB68012B03D9064B1800EF
:100C8000FFF73EFBFB681800BD4604B080BDC046C0
:100C9000602B0000582B0000802B000080B584B032
:100CA00000AF78600A00BB1C1A807B681800FFF751
:100CB000C3FF0300FB60054BFA685200B91C0988AA
:100CC000D152C046BD4604B080BDC0463C000010B5
:100CD00080B582B000AF786039603B68002B03D1EB
:100CE000104B1800FFF70CFB3B681B781A000F2312
:100CF0001A403B685B781B01FF210B401A433B689D
:100D00009B781902F0231B010B401A433B68DB78E8
:100D10001B031B041B0C1A437B685A60C046BD466C
:100D200002B080BDB82B000080B582B000AF786003
:100D30007B68002B03D11A4B1800FFF7E1FA7B68A0
:100D400018220021180001F0AAFD7B6800221A7009
:100D50007B6801225A707B6800221A727B6800222D
:100D60005A727B6800229A727B680E4A5A607B68CE
:100D70000722DA727B680C4ADA607B680B4A1A82B7
:100D80007B6800221A757B680022DA747B68002277
:100D90009A747B6800225A75C046BD4602B080BD79
:100DA000D82B000020A10700FFFFFEFFFFF0FFFF90
:100DB00080B588B000AFF860B9607A600023FB614D
:100DC0000023BB6100237B61FB68002B05D0BB685F
:100DD000002B02D07B68002B03D13C4B1800FFF79F
:100DE0008FFAFB681800FFF727FF0300FB61384A02
:100DF000FB69D3181B781800FFF7F0FE354AFB6932
:100E0000D3181B78180001F0A8FCBB6859687A68F1
:100E1000FB68180000F060F80300BB61BB69002BA1
:100E200001D0BB694EE0BB685B7A1B0110221A40FF
:100E3000BB681B7A5B0120210B401A43BB689B7A7D
:100E4000DB0008210B401A43BB681B78DB01FF2144
:100E50000B401A43BB6810215B5E9BB21900F02364
:100E60001B010B401A437B691343042213437B612C
:100E7000FB687A691A60BB6812331A00FB681100BC
:100E80001800FFF725FFFB6800211800FFF706FF99
:100E9000FB681A6ABB68DB7A1906F0231B05194048
:100EA000BB68DB681800F0231B0303400B431A43A5
:100EB000FB681A62BB685A78FB681100180001F0E1
:100EC00060FC00231800BD4608B080BDF82B000070
:100ED000502B0000542B000080B586B000AFF860A6
:100EE000B9607A60FB68002B05D0BB68002B02D08C
:100EF0007B68002B03D1124B1800FFF701FAB96889
:100F0000786801F0F2FC0300013B7B617A69802381
:100F10005B029A4201D30B4B0EE0FB685B6A1B0C31
:100F20001A04FB685A62FB685A6A7B691B041B0C33
:100F30001A43FB685A6200231800BD4606B080BD04
:100F4000482C0000B31D000080B588B000AF786069
:100F500039600023FB6100233B617B681800FFF7C9
:100F60006BFE0300FB607B68002B0AD03B68002B04
:100F700007D03B681B68002B07D13B685B68002BE0
:100F800003D1694B1800FFF7BBF93B689B687B6195
:100F90007B681B6A654A1340FB61FB691B0E0F22CD
:100FA0001340BB603B68DA6880239B031340FA69F7
:100FB0001343FB613B68DA688023DB031340FA6963
:100FC0001343FB613B685B68002B04D1FB69802203
:100FD000D2031343FB61FB693B613B68DA68802302
:100FE0005B0313403A6913433B617B69012B02D1D8
:100FF000BB68072B05D97B69022B09D1BB68072B7E
:1010000006D93A697B6811001800FFF7FFFD05E07B
:10101000FA697B6811001800FFF7F8FD6FE0002304
:10102000BB61C0467B689B6802221340FAD03B68D4
:101030001B68002B14D03B681B68591C3A68116070
:101040001B78BB61BB68072B10D93B681B68591C18
:101050003A6811601B781B02BA691343BB6105E053
:10106000334BFA685200D35A9BB2BB61BB68072B63
:1010700005D97B69023B5A425341DBB204E07B69EC
:10108000013B5A425341DBB2002B05D0BA693B69A0
:101090001A437B689A6102E07B68BA69DA613B684F
:1010A000DA688023DB03134020D1C0467B689B684D
:1010B00001221340FAD07B685B69BB613B685B68C7
:1010C000002B13D03B685B68591C3A685160BA69C1
:1010D000D2B21A70BB68072B08D9BB69180A3B68E3
:1010E0005B68591C3A685160C2B21A707B69013B57
:1010F0007B61BB68072B02D97B69013B7B617B6904
:10110000002B8CD13B68DA6880235B03134006D048
:10111000C0467B689A6880235B001340F9D00023A7
:101120001800BD4608B080BD9C2C000000000F0FC9
:101130003C00001080B582B000AF786039607B68F9
:10114000180001F03BFB031E06D0084B1B683968F2
:101150007A681000984705E0054B1B6839687A6883
:1011600010009847C046BD4602B080BD3400001054
:101170003800001080B500AF084B1B68002B03D16E
:10118000074B1800FFF7BCF8044B1B68054A190011
:101190001000FFF7CFFFC046BD4680BD2C000010F9
:1011A000082D00000080054080B500AF084B5B684B
:1011B000002B03D1074B1800FFF7A2F8044B5B6824
:1011C000054A19001000FFF7B5FFC046BD4680BDB7
:1011D0002C000010302D000000C0054080B586B006
:1011E00000AF786008001100FB1C021C1A70BB1CC9
:1011F0000A1C1A707B68002B03D11C4B1800FFF7E8
:101200007FF8FB1C1B782F2B03D9194B1800FFF715
:1012100077F800237B6100233B61FB1C1B789B0854
:10122000DBB27B61FB1C1B7803221340DB003B61BC
:101230007B687A699200D358FB60FF223B699A4031
:101240001300DA43FB681340FB60BB1C1A783B6950
:101250009A401300FA681343FB607B687A69920036
:10126000F968D150C046BD4606B080BD582D00007B
:10127000742D000080B582B000AF0200FB1D1A7013
:10128000074A8023D258FB1D1B78012199400B008F
:101290000349134380228B50C046BD4602B080BD37
:1012A0000080044080B582B000AF78600A00FB1C6B
:1012B0001A70FB1C1B78002B07D07B685B688022B0
:1012C00052001A437B685A6005E07B685B68044AF9
:1012D0001A407B685A60C046BD4602B080BDC04619
:1012E000FFFEFFFF80B584B000AF78600023FB6095
:1012F00009E00D4BFA689200D2587B689A4206D0FA
:10130000FB680133FB60FB68022BF2D900E0C046AA
:10131000FB68022B03D9054B1800FEF7F1FFFB68B1
:101320001800BD4604B080BDA42D0000B82D0000FB
:1013300080B586B000AFF860B9607A60FB68002BBA
:1013400005D0BB68002B02D07B68002B03D13F4B3C
:101350001800FEF7D5FF00237B61FB681800FFF73C
:10136000C1FF03003B613A4A3B69D3181B78180060
:10137000FFF780FF374A3B69D3181B78180001F04C
:10138000ECF9BB685B7A1B0130221A40BB689B7A80
:101390009B0140210B401A43BB681B7B5B08DBB2FF
:1013A000D90280231B010B401A43BB68DB7A9B00E8
:1013B0000C210B401A43BB689B79DB031B041B0CFD
:1013C0001A43BB681B7B99038023DB010B401A4344
:1013D000BB685B7B190380235B010B401A43BB682E
:1013E0001B7A590280239B000B40134301221A43AE
:1013F000FB681A60BB681B68002B0AD0BB681968C1
:101400007A68FB68180000F063F8031E01D0124BE5
:101410007B617B69002B14D1BB68DA79FB68110012
:101420001800FFF73FFFBB685A79FB6811001800EE
:1014300001F0D3F9BB681A79FB681100180001F0BC
:10144000EFF97B691800BD4606B080BDF42D0000A1
:10145000B02D0000B42D00004F16000080B582B002
:1014600000AF78607B68002B03D1184B1800FEF7A3
:1014700047FF7B6810220021180001F010FA7B68FA
:10148000962292011A607B6800225A727B680022C1
:101490009A727B680122DA727B6800229A717B68FB
:1014A00000221A717B6800225A717B6800221A732D
:1014B0007B680022DA717B6800225A737B68002205
:1014C0001A72C046BD4602B080BDC046442E000020
:1014D00080B58CB000AFF860B9607A60FB68002B13
:1014E00005D0BB68002B02D07B68002B03D1474B93
:1014F0001800FEF705FF01235B42FB620F23BB626E
:1015000001235B427B620023FB610023BB6100235C
:101510003B6200237B61FB681A6880231B01134038
:101520000AD0B968786801F0E0F90300BB61BB69D3
:101530005A1EFB681A6263E0BB6A3B623FE07A684E
:1015400013009B009B185B0018003B6A0133BA68CC
:101550005343190001F0C9F90300053B0A211800A3
:1015600001F0C3F90300BB61BA6980235B029A42B0
:1015700021D23B6A0133BA690132534319007868BA
:1015800001F0B3F903007B61BA687B699A4203D228
:101590007A69BB68D31A02E0BA687B69D31AFB6127
:1015A000FA69FB6A9A4207D2FB69FB623B6ABB623B
:1015B000BB697B6200E0C0463B6A013B3B623B6A21
:1015C000072BBCD87A6A80235B029A4201D3104B66
:1015D00017E0BB686421180001F087F903001A00C6
:1015E00013005B009B18FA6A9A4203D3094B180058
:1015F000FEF786FEFB68BA6A9A62FB687A6A1A622C
:1016000000231800BD460CB080BDC046682E000007
:101610004F160000BC2E000080B584B000AFF8600B
:10162000B9607A60FB68002B02D0BB68002B14D134
:10163000114B1800FEF764FEC046FB689B6804224D
:101640001340FAD0BB681B781A00FB68DA61BB68EC
:101650000133BB607B68013B7B607B68002BEBD177
:10166000C046FB689B6808221340FAD0002318008C
:10167000BD4604B080BDC046F82E000080B586B0DF
:1016800000AFF860B9607A6000237B61FB68002BD3
:1016900002D0BB68002B3DD1234B1800FEF730FE73
:1016A000C046FB689B6801221340FAD0FB689B6828
:1016B0003B61FB689A683B691A43FB689A603A6928
:1016C00080235B00134002D0184B7B6127E03A690E
:1016D0008023DB01134001D0154B7B613A698023E5
:1016E0009B01134001D0134B7B613A6980231B029D
:1016F000134001D0104B7B617B69002B0ED1FB683E
:101700005B69DAB2BB681A70BB680133BB607B6887
:10171000013B7B607B68002BC2D100E0C0467B6947
:101720001800BD4606B080BD302F00004E160000E8
:101730004D1600004C1600004B16000080B500AF9F
:10174000044B1A68044B1B68044819009047C046B4
:10175000BD4680BD4C000010400000100040064017
:1017600080B500AF044B1A68044B5B68044819004D
:101770009047C046BD4680BD4C00001040000010A0
:101780000080064080B500AF044B1A68044B9B688C
:10179000044819009047C046BD4680BD4C0000106B
:1017A0004000001000C0064080B500AF054B064A5F
:1017B0009A60064B064A1A6001F054F8C046BD46CE
:1017C00080BDC04600ED00E00000000000000010F9
:1017D000001BB70080B582B000AF78607B68002B3B
:1017E00001D1002300E0024B1800BD4602B080BDCD
:1017F000AF2F000090B589B000AF786039607B688A
:10180000002B03D13D4B1800FEF77AFD3B68002BFF
:1018100003D13B4B1800FEF773FD3B689B7B022B0B
:1018200003D9384B1800FEF76BFD3B689B7B1A0011
:10183000354B9200D358002B03D1344B1800FEF7E0
:101840005FFD08243B191800FFF708FE3B685A6843
:1018500021007B181A603B681B7A022B03D17B188E
:1018600002225A720CE03B681B7A032B04D1082336
:10187000FB1803225A7203E00823FB1800225A7255
:101880003B685B7A012B04D10823FB1801229A7272
:1018900003E00823FB1800229A723B689B7A5A1EC9
:1018A0009341DAB208217B181A713B68DB7A5A1E21
:1018B0009341DAB27B185A713B689B7B1A00124B3A
:1018C0009200D0583B681A687B181900FFF730FD6A
:1018D0000300FB61FB69002B05D0FB691800FFF7D3
:1018E00079FF030006E07B68BB613B689A7BBB69BC
:1018F0001A7000231800BD4609B090BD742F000077
:101900009C2F0000C82F0000682F0000343000001A
:1019100080B586B000AFF860B9607A60FB68002BD4
:1019200003D1154B1800FEF7EBFCBB68002B03D16D
:10193000124B1800FEF7E4FC7B68002B03D1104B20
:101940001800FEF7DDFCFB687B617B691B781A00E1
:101950000C4B9200D3587A68B9681800FFF78EFED6
:1019600003003B613B691800FFF734FF03001800D8
:10197000BD4606B080BDC0467C300000A4300000EB
:10198000C8300000682F000080B586B000AFF86056
:10199000B9607A60FB68002B03D1124B1800FEF788
:1019A000AFFCBB68002B03D10F4B1800FEF7A8FC5F
:1019B0007B68002B03D10D4B1800FEF7A1FCFB68E0
:1019C0007B617B691B781A00094B9200D3587A68B7
:1019D000B9681800FFF720FE00231800BD4606B0C6
:1019E00080BDC046F0300000183100003C310000DE
:1019F000682F000080B582B000AF0200FB1D1A7096
:101A0000074A8023D258FB1D1B78012199400B0007
:101A10000349134380228B50C046BD4602B080BDAF
:101A20000080044080B582B000AF02003960BB1D69
:101A30001A80BB1D1B881B051B0D054A9446634479
:101A40003A68FF210A401A60C046BD4602B080BD18
:101A50000080044080B582B000AF0E20FFF7CAFFBF
:101A600001219420FFF7DEFF032000F076FEFEF751
:101A7000C5FE020096239901130001220020FEF703
:101A80004DFC03007B607B68002B03D0044B1800E7
:101A9000FEF736FC7B681800BD4602B080BDC0462C
:101AA0006431000080B582B000AF0200BB1D1A8017
:101AB000BB1D1A88BB1D1B881B0A9BB21900FF2384
:101AC0000B4005498C466344FF210A401A60C0461A
:101AD000BD4602B080BDC0460080044080B582B0E3
:101AE00000AF78607B68002B03D1094B1800FEF72C
:101AF00007FC084B9B6FFF22934319007B68FF2272
:101B00001A40044B0A439A67C046BD4602B080BDE6
:101B10008C3100000080044080B582B000AF786056
:101B2000074A8E239B00D3587A68D24304491A404F
:101B30008E239B00CA50C046BD4602B080BDC04641
:101B40000080044080B582B000AF0120FFF7E4FFC1
:101B50000220FFF7E1FF2020FFF7DEFF8023DB01FB
:101B60001800FFF79FFF3B0000221A713B000C4A50
:101B70001A603B001800FEF703FF0020FEF782FF0B
:101B8000E0231B021800FFF78DFF0120FFF7A6FFDF
:101B9000044B034A1A60C046BD4602B080BDC04631
:101BA000001BB7000000001080B582B000AF02003B
:101BB000FB1D1A70074A8023D258FB1D1B78012198
:101BC00099400B000349134380228B50C046BD4609
:101BD00002B080BD0080044080B582B000AF02003A
:101BE000FB1D1A70084A8023D358FA1D1278012170
:101BF00091400A00D2430449134080228B50C046D2
:101C0000BD4602B080BDC0460080044080B584B0AF
:101C100000AF1220FFF7C8FF0720FFF7C5FF0C2118
:101C20007B18284A12881A807B18A02210060F22DF
:101C3000002100F032FD08217B1801221A707B1868
:101C400000225A707B18A02210060C22002100F0FE
:101C500024FD3B1D01221A703B1D00225A703B1DC2
:101C6000A02210060022002100F017FD164B0E22C4
:101C700000211800FFF7B2FA134B0B2201211800C4
:101C8000FFF7ACFA104B0D220F211800FFF7A6FA50
:101C90000D4B172210211800FFF7A0FA0A4B112252
:101CA00011211800FFF79AFA074B0C221221180095
:101CB000FFF794FA0720FFF78FFFC046BD4604B038
:101CC00080BDC046FC31000000C0004070B5184C1B
:101CD00018492200002000F0ABF8802380225B002E
:101CE00000212000D20000F02FF8134C134D2200E9
:101CF0002900012000F09CF8802380225B00002155
:101D00002000D20000F020F80D4B1B68022B0DDDE7
:101D10000C4C29002200022000F08AF88023802247
:101D2000002120005B00D20000F00EF870BDC0461C
:101D30005400001004320000900000100632000031
:101D400000320000CC000010F0B5C568040001208E
:101D5000AE070CD080208000824213D08020C000CB
:101D6000824205D08020400082420BD0FF38F0BD77
:101D70002100012324311543002021612160E3610A
:101D8000E560F4E7024F5E1E0120BE42F3D9EEE7A4
:101D9000FEFFFF000300032110B51A000B4219D10A
:101DA000114C1368114959189943214219D0DCB2DA
:101DB000511C002C0BD0FF242402911C234206D07E
:101DC000FF2109040B40591E8B41D318D91C013047
:101DD000081A05E001335C1E2478002CDDD1101AAE
:101DE00010BD0432DDE7C04680808080FFFEFEFE2D
:101DF0002022C36810B59343C3608269836A0400DC
:101E00009A420CD000F04EF8E268074B1A401023BB
:101E10001343E360A36AA3612369E3622360E36879
:101E2000024A1340E36010BDEFCFFFFFBFBFFFFFCB
:101E3000F7B50D0001901000140000F095F82B7814
:101E4000722B1CD0772B1DD0612B26D1144A593B05
:101E50000220691C032784460426012508782B28C4
:101E600013D0622816D0E260019A62611B0704D584
:101E700002220021200000F0C5F82000FEBD002352
:101E80000122E5E704230222E2E760463A430343E6
:101E90000131E3E732432B43FAE70024EDE7C04684
:101EA0000280000070B50400134AE36805691A4017
:101EB0000168C06AE26082221A40022A02D0012030
:101EC000404270BDDB030CD5814200D201008D423F
:101ED00009D10023094AA360E368E5621340256045
:101EE000E3600020EDE722002800491B00F008F81D
:101EF0000028EED0E3E7C046FFFFF7FFFFFFFEFF3D
:101F0000F7B5D5680F00140056690190EB0205D5AE
:101F1000102330001D4300F050FDA061104B1D4206
:101F20000FD03000A16900F051FD002806DA8023AF
:101F30000120E26840421343E3600FE0094B1D407B
:101F4000E5603A003000019900F046FD4300A269C7
:101F50005B08FB1AD318A3610028E8D1FEBDC04678
:101F600010000200EFFFFDFFF0B5C56804004769EF
:101F7000066989B0AB0720D02B0716D400F022F8F1
:101F8000380000F017FD2B0502D5300000F08BFC67
:101F90000B4BAD0DAD059D4207D120226846216A4D
:101FA00000F017FD684600F094FC3C220021200060
:101FB00000F075FC002009B0F0BD01204042FAE7B6
:101FC000000080ADF8B5002812D000F0B7F8050089
:101FD0002800F8BD38006043084BC01800F0AEF888
:101FE000002801D001256D420134A642F2DCEFE762
:101FF000034B040005003C271E68F6E75400001060
:1020000000320000F7B54369C6680193364B0400FF
:102010000D0000921E420BD0019800F0D1FC071E6B
:1020200006D1009B012B06D0022B2DD0002B06D011
:1020300002273800FEBD200000F05AF82D18002DB0
:10204000F6DBB30404D52368E26A9A4200D2E36265
:10205000A369AB420EDCE16A22688A4200D20A0020
:102060002169D0180091401AA84203DB206B19188F
:10207000A94228DC20231E430023A562A3606360DD
:102080001A4B1E40E660D4E7019800F096FCE26827
:10209000002804DA802313430127E360C9E7E16ADB
:1020A0002368994200D90B00A1695B1821695B1A6A
:1020B000920603D5A26A934200DA1300834200DA43
:1020C0000300ED18BBE7EB1AB50701D5181AA0609D
:1020D000F00703D50099521A9A1A6260009AD11833
:1020E000202321609E43CBE703001000BFCFF7FF02
:1020F000C16802008B0705D1212201200E4B40420E
:102100001A60704720230B4009030AD5002B02D028
:10211000806A0138F5E793690068C0181369C01A2E
:10212000F7E7002B01D0806AEBE70368816900695B
:102130005B18181AE5E7C04650000010C36870B578
:1021400003221E0004001640134211D09B0611D535
:10215000856AFFF74DFEE368094A20001340E360FB
:10216000FFF7A0FE0022060029002000FFF74AFF2B
:10217000300070BD83690568ED180369ED1AEAE760
:10218000FFCFFFFF0FB480B582B000AF00237B60AC
:102190001423FB183B603A683B6911001800FEF7F6
:1021A00011F903007B607B681800BD4602B080BC5B
:1021B00008BC04B0184780B586B000AFB9607A603B
:1021C0003B600F23FB18021C1A70BB687B610DE09B
:1021D0000F23FB181A783B6A100098473B681B686E
:1021E0005A1C3B681A607B6901337B617A697B68A2
:1021F0009A42EDDBC046C046BD4606B080BD80B504
:102200008EB000AFF860B9607A603B600023FB627B
:10221000FB68BB62BB6A5A1CBA6200221A700023B8
:102220007B6000237B6200233B620023FB61002371
:102230007B630023BB6100233B6300237B61BB689E
:102240001B687B637B6B002B32D1BB6A30221A7018
:10225000FB6A0133FB62FB6A2EE03B681900786B76
:1022600000F043FB0300BB613B68BA6953437A6BE0
:10227000D31A3B633B6B092B03D83B6B30333B6377
:102280000BE04023FB181B78002B01D0412300E01A
:1022900061233A6B9B180A3B3B63BB697B63BB6A58
:1022A0005A1CBA623A6BD2B21A70FB6A0133FB62F3
:1022B0007B6B002BD1D1FB6A1800BD460EB080BDF0
:1022C00090B59DB002AFF860B9607A6000233B66BC
:1022D0000023FB650023FB614A23FB1800221A70D0
:1022E00000237B61BB687B667B6E1B78002B00D173
:1022F000CDE149217B187A6E12781A700A00BB185A
:102300001B78252B0BD0BB181A78FB681000984758
:10231000FB690133FB617B6E01337B66B6E14B23C6
:10232000FB1801221A7000237B655B23FB18002237
:102330001A7022E07B6E01337B6649217B187A6E2E
:1023400012781A707B181B782F2B0FD97B181B78EB
:10235000392B0BD87A6D13009B009B185B001A0079
:102360007B181B78D318303B7B6506E07B6E013B06
:102370007B665B23FB1801221A705B217B181B789C
:1023800001225340DBB2002BD4D17B6E01337B663C
:102390007B6E1B782E2B31D100233B657B180022EE
:1023A0001A7022E07B6E01337B6649217B187A6EBE
:1023B00012781A707B181B782F2B0FD97B181B787B
:1023C000392B0BD83A6D13009B009B185B001A0049
:1023D0007B181B78D318303B3B6506E07B6E013BD6
:1023E0007B665B23FB1801221A705B23FB181B78AA
:1023F00001225340DBB2002BD4D102E07B6E013BC3
:102400007B667B6E01337B6649217B187A6E12787E
:102410001A700A00BB181B78642B24D0BB181B78D9
:10242000692B20D0BB181B78662B1CD0BB181B78DF
:10243000462B18D0BB181B78782B14D0BB181B78F0
:10244000582B10D0BB181B786F2B0CD0BB181B78E7
:10245000622B08D0BB181B78702B04D0BB181B78DC
:10246000752B00D0C6E04922BB181B78642B03D023
:10247000BB181B78692B16D17B681A1D7A601B6804
:10248000BB611823F918202438194B23FB181B783B
:1024900000930A230122FFF7B2FE0300FB653A19FD
:1024A000FB6DD3183B664922BB181B78582B03D011
:1024B000BB181B78782B1FD14923FB181B78782B6E
:1024C00003D14B23FB1800221A707B681A1D7A6017
:1024D0001B687B611423F918202438194B23FB183F
:1024E0001B78009310230022FFF789FE0300FB6591
:1024F0003A19FB6DD3183B664922BB181B786F2B2A
:102500000BD0BB181B78622B07D0BB181B78702B25
:1025100003D0BB181B78752B4ED14923FB181B78B1
:10252000702B0DD17B681A1D7A601B683B611023EC
:10253000F9181423FB180422180000F0ACF904E089
:102540007B681A1D7A601B687B614923FB181B7826
:10255000752B16D01ADC702B0ED017DC622B06D030
:102560006F2B13D14A23FB1808221A700FE04A235D
:10257000FB1802221A700AE04A23FB1810221A7074
:1025800005E04A23FB180A221A7000E0C0464A23DD
:10259000FB181A781423F918202438194B23FB1838
:1025A0001B78009313000022FFF729FE0300FB6550
:1025B0003A19FB6DD3183B667A6D1C23F818F96D38
:1025C000FB68009303002020FFF7F5FD3B6E002B16
:1025D00059D00AE03B6E5A1E3A661B781A00FB6817
:1025E00010009847FB690133FB613B6E1B78002BA1
:1025F000F0D148E04923FB181B78632B0CD17B6892
:102600001A1D7A601B687B647A6CFB68100098471F
:10261000FB690133FB6136E04923FB181B78732B00
:1026200028D17B681A1D7A601B68FB64FB6C002B49
:1026300029D0FB6C1800FFF7ADFB0300FB657A6D3A
:102640001C23F818F96DFB68009303002020FFF7A6
:10265000B2FD0AE0FB6C5A1CFA641B781A00FB6896
:1026600010009847FB690133FB61FB6C1B78002B62
:10267000F0D108E04923FB181A78FB68100098474E
:10268000FB690133FB617B6E01337B662CE6C04640
:10269000FB691800BD461BB090BD80B584B000AF8B
:1026A000F860B9607A603B60BA68FB681100180096
:1026B000FEF736FA3B681B78002B17D1FB68BA6827
:1026C000802109018C4662449200D35801217A6826
:1026D00091400A00D2431A401100FB68BA6880207A
:1026E0000001844662449200D15032E03B685B783E
:1026F000002B0CD101227B689A401100FB68BA685C
:102700008A200001844662449200D1500BE00122ED
:102710007B689A401100FB68BA68882000018446F3
:1027200062449200D150FB68BA68802109018C464E
:1027300062449200D25801217B6899400B001A43F1
:102740001100FB68BA688020000184466244920050
:10275000D150C046BD4604B080BD80B582B000AF48
:102760000200FB1D1A70FB1D1B781800FEF7EEF926
:10277000FB1D1B781800FEF70DFAC046BD4602B0DF
:1027800080BD80B582B000AF78600A00FB1C1A7073
:10279000FB1C1B78002B06D07B681B6801221A43A8
:1027A0007B681A6006E07B681B68012293431A006D
:1027B0007B681A60C046BD4602B080BD80B582B05D
:1027C00000AF78607B681B68042213405A1E934157
:1027D000DBB21800BD4602B080BD80B582B000AF4C
:1027E00078600A00FB1C1A70FB1C1B78002B0DD0B4
:1027F0007B681B6801221A437B681A607B685B68F0
:10280000402293431A007B685A6005E07B685B684E
:1028100040221A437B685A60C046BD4602B080BD64
:1028200080B582B000AF78600A00FB1C1A70FB1CF8
:102830001B78002B06D07B681B6801221A437B683B
:102840001A600BE07B685B684022134006D07B680F
:102850001B68012293431A007B681A60C046BD467C
:1028600002B080BD80B500AFC046BD4680BD80B51A
:1028700000AFFFF767F9C046BD4680BD80B500AF29
:10288000FFF7C4F9C046BD4680BD10B5FFF71EFA7C
:10289000FDF71CFE10BD10B500F061F810BD10B5BD
:1028A00000F073F810BD10B5002811D080210C384D
:1028B000490501608268002A0AD013688B4207D15B
:1028C0004368546803331B19436093688360F1E7DE
:1028D00010BD10B50400FFF75DFA0100200000F004
:1028E00072F810BD03000B4321D4002931D001221E
:1028F000D207030901E0090112099942FBD94308F3
:1029000001E0490052089942FBD900E04908401A09
:1029100007D35241FAD30146104670474908401880
:10292000F7D29218FAD34018014610467047CB0FE1
:1029300000D04942021000D54042534008B5FFF78D
:10294000D4FF0CBC521000D34042002A00D54942AB
:102950001847F446002000F001F8604770478446AD
:10296000830708D18B0706D1131F04D304C904C001
:10297000043BFBD21A1D524205D0891A801A8B5C87
:1029800083540132FBD1604670478446043A09D330
:10299000830707D109060B0A19430B0C1943043AA4
:1029A00002C0FCD2043203D001700130013AFBD1E5
:1029B0006046704701204042704701204042704706
:1029C00001204042704701204042704701204042B0
:1029D00070470120404270471000704741535345F3
:1029E0005254204552524F522022202573200A0073
:1029F0000A0D546865205258206461746120617228
:102A0000653A2000305825303258200066736C5FDC
:102A1000636C6F636B2E633A3537203A20626173C3
:102A20006500FFFF66736C5F636C6F636B2E633AC8
:102A3000313132203A2066616C73650082080000F3
:102A40008C080000BE08000096080000A0080000E6
:102A5000B4080000BE080000AA08000066736C5F9E
:102A6000636C6F636B2E633A323438203A206661B0
:102A70006C73650066736C5F636C6F636B2E633A97
:102A8000323834203A20636F6E6669672D3E746178
:102A90007267657446726571203C3D2053595350EE
:102AA0004C4C5F4D41585F4F55545055545F465202
:102AB00045515F485A00000066736C5F636C6F633A
:102AC0006B2E633A323938203A20696E707574463D
:102AD00072657120213D20305500FFFF66736C5FE9
:102AE0006770696F2E633A3435203A20706F7274C4
:102AF000203C2041525241595F53495A4528735F47
:102B00006770696F436C6F636B4E616D652900FF81
:102B100066736C5F72657365742E633A3539203A5B
:102B200020626974506F73203C203332554C00FF93
:102B300066736C5F72657365742E633A3731203A41
:102B400020626974506F73203C203332554C00FF73
:102B50000B0CFFFF0001FFFF0080054000C0054097
:102B600066736C5F7370692E633A313438203A2093
:102B70004E554C4C20213D206261736500000000E1
:102B800066736C5F7370692E633A313630203A2079
:102B900069203C202875696E7433325F742946536E
:102BA0004C5F464541545552455F534F435F535028
:102BB000495F434F554E540066736C5F7370692EC6
:102BC000633A313836203A204E554C4C20213D2076
:102BD000636F6E66696700FF66736C5F7370692E62
:102BE000633A323039203A204E554C4C20213D205A
:102BF000636F6E66696700FF66736C5F7370692E42
:102C0000633A323534203A202128284E554C4C2046
:102C10003D3D206261736529207C7C20284E554C07
:102C20004C203D3D20636F6E66696729207C7C20C7
:102C3000283055203D3D20737263436C6F636B5F9A
:102C4000487A292900FFFFFF66736C5F7370692E55
:102C5000633A343136203A202128284E554C4C20F6
:102C60003D3D206261736529207C7C202830552001
:102C70003D3D2062617564726174655F42707329C5
:102C8000207C7C20283055203D3D20737263436CAE
:102C90006F636B5F487A292900FFFFFF66736C5FE3
:102CA0007370692E633A343636203A202128284E34
:102CB000554C4C203D3D206261736529207C7C2071
:102CC000284E554C4C203D3D207866657229207C6D
:102CD0007C2028284E554C4C203D3D20786665725E
:102CE0002D3E7478446174612920262620284E5593
:102CF0004C4C203D3D20786665722D3E72784461D3
:102D0000746129292900FFFF66736C5F7370692E57
:102D1000633A393432203A20735F73706948616EC8
:102D2000646C655B305D20213D204E554C4C00FFAE
:102D300066736C5F7370692E633A393531203A20BF
:102D4000735F73706948616E646C655B315D2021EF
:102D50003D204E554C4C00FF66736C5F73776D2EB3
:102D6000633A3832203A204E554C4C20213D2062A7
:102D70006173650066736C5F73776D2E633A3833E9
:102D8000203A2066756E63203C206B53574D5F4D93
:102D90004F5641424C455F4E554D5F46554E43534D
:102DA00000FFFFFF004006400080064000C00640D4
:102DB0000E0F10FF030405FF66736C5F757361727D
:102DC000742E633A3737203A2069203C20287569F1
:102DD0006E7433325F742946534C5F4645415455F7
:102DE00052455F534F435F55534152545F434F55D4
:102DF0004E5400FF66736C5F75736172742E633A94
:102E0000323132203A202128284E554C4C203D3D6D
:102E1000206261736529207C7C20284E554C4C2013
:102E20003D3D20636F6E66696729207C7C202830D9
:102E300055203D3D20737263436C6F636B5F487A2E
:102E4000292900FF66736C5F75736172742E633A93
:102E5000333131203A204E554C4C20213D20636FB8
:102E60006E66696700FFFFFF66736C5F7573617262
:102E7000742E633A333532203A202128284E554C9F
:102E80004C203D3D206261736529207C7C202830E8
:102E900055203D3D2062617564726174655F4270CA
:102EA0007329207C7C20283055203D3D207372639F
:102EB000436C6F636B5F487A2929000066736C5F0F
:102EC00075736172742E633A333932203A20626529
:102ED00073745F64696666203C20282862617564AB
:102EE000726174655F427073202F20313030552934
:102EF000202A2033552900FF66736C5F7573617259
:102F0000742E633A343338203A202128284E554C09
:102F10004C203D3D206261736529207C7C20284E39
:102F2000554C4C203D3D2064617461292900FFFF10
:102F300066736C5F75736172742E633A353032203C
:102F40003A202128284E554C4C203D3D206261738B
:102F50006529207C7C20284E554C4C203D3D20642A
:102F6000617461292900FFFF00400640008006408F
:102F700000C0064066736C5F616461707465725F67
:102F80006D696E6975736172742E633A32323020E6
:102F90003A2068616E646C650000000066736C5FC7
:102FA000616461707465725F6D696E697573617279
:102FB000742E633A323231203A20756172745F6345
:102FC0006F6E66696700000066736C5F61646170B4
:102FD0007465725F6D696E6975736172742E633AA0
:102FE000323232203A20756172745F636F6E6669A7
:102FF000672D3E696E7374616E6365203C20287393
:10300000697A656F6628735F557361727441646194
:10301000707465724261736529202F2073697A6527
:103020006F662855534152545F54797065202A29A0
:103030002900000066736C5F616461707465725F83
:103040006D696E6975736172742E633A3232332022
:103050003A20735F55736172744164617074657274
:10306000426173655B756172745F636F6E666967F9
:103070002D3E696E7374616E63655D0066736C5F8F
:10308000616461707465725F6D696E697573617298
:10309000742E633A333036203A2068616E646C6572
:1030A0000000000066736C5F616461707465725F3C
:1030B0006D696E6975736172742E633A33303720AF
:1030C0003A2064617461000066736C5F61646170D2
:1030D0007465725F6D696E6975736172742E633A9F
:1030E000333038203A206C656E67746800FFFFFF4C
:1030F00066736C5F616461707465725F6D696E693F
:1031000075736172742E633A333237203A206861E6
:103110006E646C650000000066736C5F61646170D2
:103120007465725F6D696E6975736172742E633A4E
:10313000333238203A2064617461000066736C5F3A
:10314000616461707465725F6D696E6975736172D7
:10315000742E633A333239203A206C656E67746896
:1031600000FFFFFF626F6172642E633A3336203ACC
:10317000206B5374617475735F5375636365737308
:10318000203D3D20726573756C7400FF433A5C55B9
:10319000736572735C757365725C446F63756D659E
:1031A0006E74735C4D43555870726573736F494408
:1031B000455F31312E382E305F313136355C7561E7
:1031C00072745C7370695F706F6C6C696E675F6D51
:1031D00061737465725C647269766572732F66736D
:1031E0006C5F636C6F636B2E683A333937203A201B
:1031F00076616C756520213D203055000101FFFF8F
:083200000300000072007700DA
:04320800001BB700F0
:04000003000000E910
:00000001FF
